:100000009CC00000B7C00000B5C00000B3C0000035
:10001000B1C00000AFC00000ADC000004DC1000085
:10002000A9C00000D8C10000A5C00000A3C0000006
:10003000A1C000009FC000009DC000009BC0000048
:1000400016C2000097C0000095C0000093C00000D9
:1000500091C000008FC000008DC000008BC0000068
:1000600089C0000087C0000085C0000083C0000078
:1000700081C000007FC000007DC000007BC0000088
:1000800079C0000077C0000075C000003E03550332
:1000900055035503320355035503550355035503C3
:1000A00055035503550355032F03550336035503D5
:1000B0005503550342035503550355035503550393
:1000C0005503550355035503550355035503550370
:1000D0005503550355035503550355035503550360
:1000E0005503550355035503550355035503550350
:1000F0005503550355035503550355035503550340
:100100004A0355035503550355035503550355033A
:100110005203550355035503550355035503550322
:100120004E03550355035503550355035503550316
:1001300046035503550355033A0311241FBECFEF61
:10014000D0E1DEBFCDBF11E0A0E0B1E0E6EEF0E12E
:1001500000E00BBF02C007900D92A235B107D9F79E
:1001600021E0A2E5B1E001C01D92AE36B207E1F791
:1001700056D3B7C745CF8FEF87BB80E28ABF80E4F5
:1001800089BF88BF0895863A2FEF920739F487E137
:1001900090E090935501809354010895009739F4AD
:1001A0008EE090E0909355018093540108958A3534
:1001B000910531F487E090E09093550180935401CC
:1001C00008955D9BFECF8CB9089580919B00882394
:1001D000E4F780919C00089598E19AB98FE589B978
:1001E00090939A0080939900089585B3846085BBAD
:1001F00089EF90E00197F1F700C0000085B38B7F95
:1002000085BB89EF90E00197F1F700C000000895E9
:1002100095B3916095BB8BBBE8DF83EF91E00197CD
:10022000F1F700C00000089595B39E7F95BB8BBB8E
:10023000DCDF83EF91E00197F1F700C00000089543
:1002400081E0F2DF83EF91E00197F1F700C0000059
:10025000089583ED90E30197F1F700C000008FEF60
:100260008ABB1BBA84B3876084BB85B38D7F85BB93
:1002700088E3DADF8CE0D8DFE3DF86E0D5CF0895CE
:100280000F931F93CF938C01C0E002C0C1DFCF5FFB
:10029000F801EC0FF11D80818111F8CFCF911F91F2
:1002A0000F9108956F70817090E4899F600D112403
:1002B000862F8058B9CF08951F920F920FB60F92D4
:1002C00011240BB60F928F939F93EF93FF93F894A3
:1002D00080915B0190915C01019690935C01809309
:1002E0005B0180916501813041F018F08230A9F006
:1002F00063C081E0809365015FC080916D018238A9
:1003000038F080916D018C3818F482E0809365019B
:1003100010926401109263014FC080916D01893089
:1003200020F080916D018D3090F080916D018331CE
:1003300050F080916D01893130F4809163018068C3
:100340008093630104C081E08093650135C0809192
:1003500064018F5F8093640180916401877039F537
:10036000E0916401E695E695E695F0E08091630101
:10037000EA59FE4F808310926301809164018032BC
:10038000B0F0109265011092640181E080936C01DD
:100390009091690180915A01981749F08091690103
:1003A00080935A0181E080936601109265008091EC
:1003B000630186958093630110926D0112BE78945B
:1003C000FF91EF919F918F910F900BBE0F900FBEF9
:1003D0000F901F9018951F920F920FB60F92112435
:1003E0002F938F939F9380916D018F5F80936D0109
:1003F00080916601882391F0809158019091590174
:1004000001969093590180935801883E934031F4AE
:100410001092590110925801109266019F918F918C
:100420002F910F900FBE0F901F9018958FEF809314
:1004300061008093620083B7856083BF87B781685E
:1004400087BF8FE090E0909355018093540184EF33
:1004500082BF85B5886085BD85B5826085BD85B55F
:10046000806185BD87EB83BD14BC789408951F928D
:100470000F920FB60F9211242F933F938F939F9358
:10048000AF93BF9380915E0190915F01A091600155
:10049000B09161010196A11DB11D80935E01909301
:1004A0005F01A0936001B093610184EF82BF8091EE
:1004B00056019091570101969093570180935601F0
:1004C00020915401309155012817390724F08FEFFE
:1004D0008093620002C01092620080915601909158
:1004E0005701883C910524F0109257011092560153
:1004F000BF91AF919F918F913F912F910F900FBE20
:100500000F901F9018954F925F926F927F928F92EB
:100510009F92AF92BF92CF92DF92EF92FF920F9392
:100520001F93CF93DF93CDB7DEB72C970FB6F89418
:10053000DEBF0FBECDBF10925E0110925F01109220
:100540006001109261011A8219821B8280EF98ED7E
:10055000AFEFBFEF89879A87AB87BC870F2EF8E193
:100560008F2EFCEF9F2EAA24AA94BA2CF02D0F2ECA
:10057000F0EE4F2EF1EB5F2E66246A94762CF02D70
:10058000C12CD12C1D821C82FE01369683E0DF0136
:100590001D928A95E9F760915E0170915F018091EB
:1005A00060019091610120E137E240E050E044D2E7
:1005B0005F934F933F932F9300E011E01F930F93AE
:1005C0007E01B4E0EB0EF11CFF92EF92AFD2DF920E
:1005D000CF921F930F938E010F5F1F4F1F930F93A7
:1005E000A5D260E080E05EDEC8014ADE65E081E021
:1005F00059DEC70145DE80915E0190915F01A091B7
:100600006001B09161010FB6F894DEBF0FBECDBF9F
:10061000803A36E8930731E0A307B10508F0BFC080
:1006200020916901222309F48CC0B501A40148512D
:100630005C4F6F4F7F4F84179507A607B70708F4E5
:1006400080C08FEF88BBE09169018E2F90E0FC01A4
:100650003897E735F10548F5EA5BFF4F0FC2109276
:10066000620123C081E0809362011FC082E0809319
:1006700062011BC083E08093620117C084E0809315
:10068000620113C085E0809362010FC086E0809311
:1006900062010BC087E08093620107C088E080930D
:1006A000620103C089E08093620184E0E7E6F1E043
:1006B000DF011D928A95E9F7809162018130F9F49A
:1006C00040915E0150915F01609160017091610104
:1006D000D301C201805E914BAF4FBF4F8417950786
:1006E000A607B70748F4BFEFCB1ADB0A2A013B0184
:1006F0008AE590E048DD03C021E0C21AD10890915C
:10070000690180915D01981781F080916901809362
:100710005D018091620155DD3FEF8FE794E031503C
:1007200080409040E1F700C0000080905E01909012
:100730005F01A0906001B090610189869A86AB86C6
:10074000BC8640915E0150915F01609160017091A3
:10075000610189859A85AB85BC8588519C4FAF4FD7
:10076000BF4F481759076A077B0708F018BA40912E
:100770005E0150915F016091600170916101D30150
:10078000C201885C954BAF4FBF4F84179507A607F2
:10079000B70708F0F7CE80E090E0F5DCF3CE80E01C
:1007A00090E0F1DC4DDD83E091E06ADDAFEFBFEF7B
:1007B0002CE2A150B0402040E1F700C0000040DD35
:1007C00086E69EE00197F1F700008FE091E058DDAA
:1007D00065E081E067DDCE01019652DD9FEFAFEF6E
:1007E000BCE29150A040B040E1F700C0000028DD1D
:1007F0002C960FB6F894DEBF0FBECDBFDF91CF9120
:100800001F910F91FF90EF90DF90CF90BF90AF902E
:100810009F908F907F906F905F904F900895CF93AF
:10082000DF93CDB7DEB7A8970FB6F894DEBF0FBE43
:10083000CDBF0FDD86E69EE00197F1F700008BE16A
:1008400091E01EDD9FEFAFEFBCE29150A040B040C1
:10085000E1F700C00000F4DCBFDC8DDCE7DD8FEFEA
:1008600080936B0110926C011092650110926D01E2
:1008700010926401FE01319684E1DF011D928A9598
:10088000E9F7E12CF12CA12CB12C01C05601650136
:10089000BFEFCB1ADB0A99DCE1E0F0E0EC0FFD1FC3
:1008A000EA0DFB1D80838C3409F0A7C011C0E1E084
:1008B000F0E0EC0FFD1FE00FF11F808182DC8FEF75
:1008C0009FE80197F1F700C000000F5F1F4F02C0C3
:1008D00000E010E00C151D0554F3E1E0F0E0EC0F32
:1008E000FD1FEA0DFB1D108265E271E0CE0101964D
:1008F000EBD020E030E013C089010F5F1F4F220FC3
:10090000331FE1E0F0E0EC0FFD1FE20FF31F958BCA
:10091000848B65E271E080E090E0D6D0980100978A
:1009200059F72530310551F0FE01319684E1DF01A0
:100930001D928A95E9F7C12CD12CA8CF63E080E005
:10094000B1DC87E291E09CDC60E081E0ABDC00E0C0
:1009500010E014C0F801EE0FFF1F81E090E08C0F53
:100960009D1FE80FF91F848995898ADC03301105E2
:1009700019F08CE291E084DC0F5F1F4F0430110509
:100980004CF39FEFAFEFBCE29150A040B040E1F7D5
:1009900000C0000055DC86E69EE00197F1F70000FC
:1009A00062E080E07FDC0D8D1E8DC80170D0892B48
:1009B00061F08EE291E064DC64E081E073DCC80108
:1009C0005FDCEE24E394F12C05C089E391E058DC70
:1009D000E12CF12C9FEFAFEFBCE29150A040B04072
:1009E000E1F700C000002CDCFE01319684E1DF015C
:1009F0001D928A95E9F7C12CD12CB1E0EB16F104D8
:100A000009F044CF62E080E04DDC86E69EE001978D
:100A1000F1F7000085E491E033DC9FEFAFEFBCE23B
:100A20009150A040B040E1F700C0000009DC6BDD50
:100A300007DCE12CF12C2ACFA1E21A2EAA1BBB1B4A
:100A4000FD010DC0AA1FBB1FEE1FFF1FA217B3079A
:100A5000E407F50720F0A21BB30BE40BF50B661FB0
:100A6000771F881F991F1A9469F760957095809574
:100A700090959B01AC01BD01CF010895EE0FFF1FC2
:100A80000024001C0BBE0790F691E02D0994FC0198
:100A900088279927E89421912032E9F3293010F032
:100AA0002E30C8F32B3239F02D3231F4689403C064
:100AB00035D0820F911D219120532A30C8F31EF4A6
:100AC000909581959F4F089542E551E000C0FA014D
:100AD000A191B081009719F41097E1F0CD01DC01EC
:100AE000CD010D90002011F4C00113C0FB01219134
:100AF000222319F02015D9F7F3CFFB0121912015FE
:100B000019F41E92119606C02223C1F70D90002001
:100B1000A1F7D001FA01A193B08308957AE0979FDD
:100B2000902D879F802D910D112408950F931F9371
:100B3000CF93DF93CDB7DEB72E970FB6F894DEBF15
:100B40000FBECDBF0D891E8986E08C831A83098371
:100B50008FEF9FE79E838D83AE01475E5F4F6F8966
:100B6000788DCE01019610D0EF81F885E00FF11F4E
:100B700010822E960FB6F894DEBF0FBECDBFDF9168
:100B8000CF911F910F9108952F923F924F925F92B4
:100B90006F927F928F929F92AF92BF92CF92DF928D
:100BA000EF92FF920F931F93CF93DF93CDB7DEB7F2
:100BB0002B970FB6F894DEBF0FBECDBF6C017B0143
:100BC0008A01FC0117821682838181FFBFC1CE0199
:100BD00001963C01F6019381F70193FD859193FF06
:100BE00081917F01882309F4ADC1853239F493FDE9
:100BF000859193FF81917F01853221F4B60190E0C8
:100C0000D6D1E8CF912C212C312CFFE1F315D8F06F
:100C10008B3279F038F4803279F08332A1F4232DCD
:100C200020611DC08D3261F0803369F4232D216075
:100C300016C0832D8260382EE32DE4603E2E2AC03C
:100C4000F32DF8601DC037FC2DC020ED280F2A3091
:100C500040F08E32B9F436FC75C1232D2064322E5B
:100C600019C036FE06C08AE0989E200D1124922EEF
:100C700011C0EAE02E9E200D1124222EF32DF062E9
:100C80003F2E08C08C3621F4832D8068382E02C098
:100C9000883641F4F70193FD859193FF81917F019F
:100CA0008111B3CF982F9F7D9554933028F40C5F1A
:100CB0001F4F9FE399830DC0833631F0833771F066
:100CC000833509F055C020C0F801808189830E5F0B
:100CD0001F4F88248394912C530112C02801F2E005
:100CE0004F0E511CF801A080B18036FE03C0692D63
:100CF00070E002C06FEF7FEFC5014ED14C01820161
:100D0000F32DFF773F2E15C0280122E0420E511C23
:100D1000F801A080B18036FE03C0692D70E002C0EA
:100D20006FEF7FEFC5012DD14C01F32DF0683F2E01
:100D3000820133FC19C0822D90E088169906A0F438
:100D4000B60180E290E033D12A94F5CFF50137FC6B
:100D5000859137FE81915F01B60190E028D1211085
:100D60002A9421E0821A91088114910479F7E1C054
:100D7000843611F0893639F5F80137FE07C06081F5
:100D80007181828193810C5F1F4F08C060817181E6
:100D9000072E000C880B990B0E5F1F4FF32DFF766B
:100DA0003F2E97FF09C090958095709561957F4F74
:100DB0008F4F9F4FF0683F2E2AE030E0A30133D1E0
:100DC000882E861844C0853731F4232D2F7EB22E0D
:100DD0002AE030E025C0932D997FB92E8F36C1F0DF
:100DE00018F4883579F0AEC0803719F0883721F0D3
:100DF000A9C0E92FE061BE2EB4FE0DC0FB2DF4604A
:100E0000BF2E09C034FE0AC0292F2660B22E06C0AC
:100E100028E030E005C020E130E002C020E132E00F
:100E2000F801B7FE07C060817181828193810C5FF8
:100E30001F4F06C06081718180E090E00E5F1F4F00
:100E4000A301F1D0882E8618FB2DFF773F2E36FEAA
:100E50000DC0232D2E7FA22E891458F434FE0BC012
:100E600032FC09C0832D8E7EA82E05C0B82CA32C81
:100E700003C0B82C01C0B92CA4FE0FC0FE01E80DC0
:100E8000F11D8081803321F49A2D997EA92E09C00D
:100E9000A2FE06C0B394B39404C08A2D867809F0EC
:100EA000B394A3FC10C0A0FE06C0B21480F4280CBA
:100EB000922C9B180DC0B21458F4B60180E290E059
:100EC00076D0B394F8CFB21418F42B1802C0982C33
:100ED000212CA4FE0FC0B60180E390E068D0A2FEF2
:100EE00016C0A1FC03C088E790E002C088E590E04E
:100EF000B6010CC08A2D867851F0A1FE02C08BE2AB
:100F000001C080E2A7FC8DE2B60190E050D08914C8
:100F100030F4B60180E390E04AD09A94F8CF8A94F6
:100F2000F301E80DF11D8081B60190E040D0811001
:100F3000F6CF222009F44ECEB60180E290E037D001
:100F40002A94F7CFF6018681978102C08FEF9FEF39
:100F50002B960FB6F894DEBF0FBECDBFDF91CF91B9
:100F60001F910F91FF90EF90DF90CF90BF90AF90C7
:100F70009F908F907F906F905F904F903F902F90B9
:100F80000895FC010590615070400110D8F78095DC
:100F900090958E0F9F1F0895FC0161507040019045
:100FA0000110D8F7809590958E0F9F1F08950F938D
:100FB0001F93CF93DF93FB01238121FD03C08FEFAC
:100FC0009FEF2CC022FF16C04681578124813581B6
:100FD0004217530744F4A081B1819D012F5F3F4F19
:100FE000318320838C93268137812F5F3F4F378356
:100FF000268314C08B01EC01FB010084F185E02DF8
:101000000995892BE1F6D80116968D919C91179739
:10101000019617969C938E931697CE01DF91CF91F0
:101020001F910F910895FA01AA27283051F120311C
:1010300081F1E8946F936E7F6E5F7F4F8F4F9F4F6C
:10104000AF4FB1E03ED0B4E03CD0670F781F891FAE
:101050009A1FA11D680F791F8A1F911DA11D6A0F7C
:10106000711D811D911DA11D20D009F468943F912F
:101070002AE0269F11243019305D3193DEF6CF012E
:101080000895462F4770405D4193B3E00FD0C9F7F4
:10109000F6CF462F4F70405D4A3318F0495D31FD61
:1010A0004052419302D0A9F7EACFB4E0A6959795B4
:1010B000879577956795BA95C9F70097610571058A
:1010C00008959B01AC010A2E0694579547953795D4
:1010D0002795BA95C9F7620F731F841F951FA01D2E
:0610E0000895F894FFCF13
:1010E60025640047616D652046496E697368005442
:1010F6006F74616C2053636F72650048656C6C6F2A
:10110600204A4D5300400043415244003A00526584
:101116007374204D6F6E6579004E4F204D6F6E656E
:10112600792E2E2E0047616D6520537461727421ED
:021136000000B7
:00000001FF
