S00F00004661737450574D2E7372656393
S113000045C0000060C000005EC000005CC000008D
S11300105AC0000058C0000056C0000054C0000080
S113002052C0000050C000004EC000004CC0000090
S11300304AC0000048C0000046C0000093C0000051
S1130040BEC0000040C000003EC000003CC0000034
S11300503AC0000038C0000036C0000034C00000C0
S113006032C0000030C000002EC000002CC00000D0
S11300702AC0000028C0000026C0000024C00000E0
S113008022C0000020C000001EC0000011241FBEBA
S1130090CFEFD0E1DEBFCDBF11E0A0E0B1E0E0EBF7
S11300A0F2E000E00BBF02C007900D92A231B1074D
S11300B0D9F721E0A2E1B1E001C01D92AA31B20753
S11300C0E1F7AAD0F3C09CCF6AE070E0C8D0AC01DD
S11300D020E030E01CC09EE095BBFB01FF27E05010
S11300E0FF4F90819BBB86E69EE00197F1F70000ED
S11300F09DE095BBFA01FF27E050FF4F90819BBB29
S113010086E69EE00197F1F700002F5F3F4F223013
S113011031050CF308956AE070E0A1D0AC0120E051
S113012030E01CC09BE095BBFB01FF27E050FF4F74
S113013090819BBB86E69EE00197F1F7000097E073
S113014095BBFA01FF27E050FF4F90819BBB86E6E9
S11301509EE00197F1F700002F5F3F4F22303105F9
S11301600CF308951F920F920FB60F9211248F93E0
S11301709F9380911401909115010196909315011C
S1130180809314014C97A4F010921501109214015D
S11301908091120190911301019690931301809321
S11301A012018436910524F0109213011092120169
S11301B09F918F910F900FBE0F901F9018951F92D3
S11301C00F920FB60F9211248F939F938091180171
S11301D09091190101969093190180931801C89781
S11301E0A4F01092190110921801809116019091B7
S11301F01701019690931701809316018436910597
S113020024F010921701109216019F918F910F9074
S11302100FBE0F901F9018959FEF9ABB8FE084BB81
S11302209BBB85BB80E187BB83B7886483BF83B7EF
S1130230806283BF83B7876083BF87B7836087BFCC
S113024012BE86E681BF78948091160190911701C1
S113025062DF809112019091130136DFF5CF97FB95
S1130260072E16F4009406D077FD08D00BD007FCB7
S113027005D03EF4909581959F4F089570956195B2
S11302807F4F0895AA1BBB1B51E107C0AA1FBB1FC8
S1130290A617B70710F0A61BB70B881F991F5A950E
S11302A0A9F780959095BC01CD010895F894FFCFEE
S11302B03F065B4F666D7D077F6F777C395E797192
S10502C00880B0
S9030000FC
