S015000050726F6A6563745F536572766F2E73726563CA
S113000045C0000053C0000051C000004FC00000B4
S11300104DC000004BC0000049C0000047C00000B4
S113002045C0000043C0000041C000003FC00000C4
S11300303DC000003BC0000039C0000037C00000D4
S113004036C0000033C0000031C000002FC00000E3
S11300502DC000002BC0000029C0000027C00000F4
S113006025C0000023C0000021C000001FC0000004
S11300701DC000001BC0000019C0000017C0000014
S113008015C0000013C0000011C0000011241FBEE1
S1130090CFEFD0E1DEBFCDBF21E0A0E0B1E001C0F1
S11300A01D92A430B207E1F735D047C0A9CF1F9203
S11300B00F920FB60F9211242F933F938F939F9318
S11300C084EF82BF80910201909103010196909385
S11300D0030180930201209100013091010128174E
S11300E039071CF08FEF88BB01C018BA8091020158
S11300F090910301883C910524F010920301109221
S113010002019F918F913F912F910F900FBE0F90FD
S11301101F9018958FEF87BB88BB85E083BF81E074
S113012087BF8FE090E0909301018093000184EFFA
S111013082BF789480E090E00895F894FFCFA9
S9030000FC
