S01000004578616D5F50574D2E7372656336
S113000045C0000060C000005EC000005CC000008D
S11300105AC0000058C0000056C0000054C0000080
S113002052C0000050C000005EC000004CC0000080
S11300304AC0000048C0000046C0000044C00000A0
S113004042C0000040C000003EC000003CC00000B0
S11300503AC0000038C0000036C0000034C00000C0
S113006032C0000030C000002EC000002CC00000D0
S11300702AC0000028C0000026C0000024C00000E0
S113008022C0000020C000001EC0000011241FBEBA
S1130090CFEFD0E1DEBFCDBF11E0A0E0B1E0E2ECF4
S11300A0F1E000E00BBF02C007900D92A231B1074E
S11300B0D9F721E0A2E1B1E001C01D92A631B20757
S11300C0E1F740D07CC09CCF6AE070E051D0FC01E5
S11300D0E050FF4F80818BBB8FEF9FE80197F1F7D2
S11300E000C0000008951F920F920FB60F921124C2
S11300F08F939F9380E784BD8091140190911501A3
S1130100019690931501809314018436910599F416
S11301101092150110921401809112019091130113
S1130120019690931301809312010A9721F410927F
S11301301301109212019F918F910F900FBE0F9097
S11301401F9018958FEF8ABB84BB87BB8BBB8EEF48
S113015085BB80E983BD80E487BF85E185BD80E7F9
S113016084BD78948091120190911301ADDFFACF90
S113017097FB072E16F4009406D077FD08D00BD019
S113018007FC05D03EF4909581959F4F0895709596
S113019061957F4F0895AA1BBB1B51E107C0AA1F9D
S11301A0BB1FA617B70710F0A61BB70B881F991F14
S11301B05A95A9F780959095BC01CD010895F894BE
S10501C0FFCF6B
S11301C23F065B4F666D7D077F6F777C395E797181
S10501D208809F
S9030000FC
