S0110000496E746572727570742E7372656346
S113000045C00000AAC000005EC000005CC0000043
S11300105AC00000B9C0000056C0000054C000001F
S113002052C0000050C000004EC000004CC0000090
S11300304AC0000048C0000046C0000044C00000A0
S113004042C0000040C000003EC000003CC00000B0
S11300503AC0000038C0000036C0000034C00000C0
S113006032C0000030C000002EC000002CC00000D0
S11300702AC0000028C0000026C0000024C00000E0
S113008022C0000020C000001EC0000011241FBEBA
S1130090CFEFD0E1DEBFCDBF11E0A0E0B1E0E0EEF4
S11300A0F1E000E00BBF02C007900D92A231B1074E
S11300B0D9F721E0A2E1B1E001C01D92A431B20759
S11300C0E1F779D08BC09CCFCF93DF9300D0CDB72D
S11300D0DEB79DEC899F912D112496959695969562
S11300E0392F330F232F220F220F230F821B9983C3
S11300F08A8340E050E080E090E021E030E025C0D9
S1130100622F609560936500BC016F5F7F4FE1E0F3
S1130110F0E0EC0FFD1FE80FF91FE081F0E0E05084
S1130120FF4F808188BB220F331F86E69EE0019734
S1130130F1F700006230710511F0CB0104C080E0DA
S113014090E021E030E04F5F5F4F4C305105C4F246
S11301500F900F90DF91CF9108951F920F920FB6D9
S11301600F9211248F939F93809112019091130108
S1130170019690931301809312019F918F910F9098
S11301800FBE0F901F9018951F920F920FB60F92EB
S113019011248F939F9380911201909113010197E1
S11301A090931301809312019F918F910F900FBE32
S11301B00F901F9018958FEF87BB8FE0809364009A
S11301C011BA12B8789481E189BF82E080936A0001
S11301D083E08ABF8091120177DFFCCFF894FFCFD0
S11301E03F065B4F666D7D077F67777C395E79716B
S10501F0088081
S9030000FC
