:1000000045C0000058C0000056C0000054C00000A9
:1000100052C0000050C000004EC000004CC00000A4
:100020004AC0000048C0000046C0000044C00000B4
:1000300042C0000040C000003EC000003CC00000C4
:100040003AC0000038C0000036C0000034C00000D4
:1000500032C0000030C000002EC000002CC00000E4
:100060002AC0000028C0000026C0000024C00000F4
:1000700022C0000020C000001EC000001CC0000004
:100080001AC0000018C0000016C0000011241FBED6
:10009000CFEFD0E1DEBFCDBF11E0A0E0B1E0EAEFED
:1000A000F1E000E00BBF02C007900D92AA30B1074B
:1000B000D9F76AD0A0C0A4CF85B3846085BB86E69B
:1000C0009EE00197F1F7000085B38B7F85BB86E644
:1000D0009EE00197F1F70000089595B3916095BBFC
:1000E0008BBBEADF8CEC9CE10197F1F700C00000CC
:1000F000089595B39E7F95BB8BBBDEDF8CEC9CE1B6
:100100000197F1F700C00000089581E0F2DF8CEC68
:100110009CE10197F1F700C0000008952FEF8FE3F5
:1001200092E0215080409040E1F700C000008FEF46
:100130008ABB1BBA84B3876084BB85B38D7F85BBC4
:1001400088E3D7DF8CE0D5DFE0DF86E0D2CF08950B
:100150000F931F93CF938C01C0E002C0BEDFCF5F2F
:10016000F801EC0FF11D80818111F8CFCF911F9123
:100170000F9108956F70817090E4899F600D112434
:10018000862F8058B6CF0895C9DF80E091E0E0DF88
:100190002FEF8FEF9CE2215080409040E1F700C0AC
:1001A0000000B3DF60E080E0E5DF81E396DF86E614
:1001B0009EE00197F1F7000065E080E0DBDF82E37D
:1001C0008CDF86E69EE00197F1F7000060E081E0B9
:1001D000D1DF83E382DF86E69EE00197F1F700003E
:1001E00065E081E0C7DF84E378DF86E69EE0019783
:0A01F000F1F70000FFCFF894FFCFF5
:0A01FA0048656C6C6F204A4D5300FD
:00000001FF
