:1000000045C0000058C0000056C0000054C00000A9
:1000100052C0000050C000004EC000004CC00000A4
:100020004AC0000048C0000046C0000044C00000B4
:1000300042C0000040C000003EC000003CC00000C4
:100040003AC0000038C0000036C0000034C00000D4
:1000500032C0000030C000002EC000002CC00000E4
:100060002AC0000028C0000026C0000024C00000F4
:1000700022C0000020C000001EC000001CC0000004
:100080001AC0000018C0000016C0000011241FBED6
:10009000CFEFD0E1DEBFCDBF11E0A0E0B1E0E8ECF2
:1000A000F1E000E00BBF02C007900D92A231B10752
:1000B000D9F74DD087C0A4CFCF93DF9300D000D025
:1000C000CDB7DEB768EE73E056D0362F64E670E049
:1000D00052D0262F6AE070E04ED039832A836B839A
:1000E0008C8340E050E080E090E021E030E025C0EB
:1000F000622F609560936500BC016F5F7F4FE1E008
:10010000F0E0EC0FFD1FE80FF91FE081F0E0E05098
:10011000FF4F808188BB86E69EE00197F1F70000E3
:10012000220F331F6430710511F0CB0104C080E051
:1001300090E021E030E04F5F5F4F4C305105C4F25A
:100140000F900F900F900F90DF91CF9108958FEF48
:1001500087BB8FE08093640080E090E004C0CE0114
:1001600002C080E090E0EC012196A6DFCF3087E26C
:10017000D807A9F7F6CF97FB072E16F4009406D000
:1001800077FD08D00BD007FC05D03EF49095819503
:100190009F4F0895709561957F4F0895AA1BBB1BD3
:1001A00051E107C0AA1FBB1FA617B70710F0A61B77
:1001B000B70B881F991F5A95A9F780959095BC0198
:0801C000CD010895F894FFCF72
:1001C8003F065B4F666D7D077F6F777C395E79717F
:0201D80008809D
:00000001FF
