S01100007072657363616C65722E7372656352
S113000045C0000060C000005EC000005CC000008D
S11300105AC0000058C0000056C0000054C0000080
S113002052C000009BC000004EC000004CC0000045
S11300304AC0000048C0000046C0000044C00000A0
S113004042C0000040C000003EC000003CC00000B0
S11300503AC0000038C0000036C0000034C00000C0
S113006032C0000030C000002EC000002CC00000D0
S11300702AC0000028C0000026C0000024C00000E0
S113008022C0000020C000001EC0000011241FBEBA
S1130090CFEFD0E1DEBFCDBF11E0A0E0B1E0ECE2F4
S11300A0F2E000E00BBF02C007900D92A231B1074D
S11300B0D9F721E0A2E1B1E001C01D92A631B20757
S11300C0E1F777D0B1C09CCFCF93DF9300D000D0BD
S11300D0CDB7DEB768EE73E080D0362F64E670E00B
S11300E07CD0262F6AE070E078D039832A836B8332
S11300F08C8340E050E080E090E021E030E024C0D8
S1130100622F609565BBBC016F5F7F4FE1E0F0E05B
S1130110EC0FFD1FE80FF91FE081F0E0E050FF4F06
S113012080818BBB86E69EE00197F1F70000220FE9
S1130130331F6430710511F0CB0104C080E090E0FE
S113014021E030E04F5F5F4F4C305105CCF20F900F
S11301500F900F900F90DF91CF9108951F920F92FF
S11301600FB60F9211242F938F939F9382EF84BD28
S1130170809114019091150101969093150180933B
S11301801401883E934069F41092150110921401F1
S11301908091120190911301019690931301809321
S11301A012019F918F912F910F900FBE0F901F906E
S11301B018959FEF9ABB2FE024BB80E887BB25BB33
S11301C093BD9DE195BD87BF81EF84BD78948091F7
S11301D012019091130178DFFACF97FB072E16F4E2
S11301E0009406D077FD08D00BD007FC05D03EF470
S11301F0909581959F4F0895709561957F4F0895CF
S1130200AA1BBB1B51E107C0AA1FBB1FA617B70738
S113021010F0A61BB70B881F991F5A95A9F7809554
S10F02209095BC01CD010895F894FFCF27
S113022C3F065B4F666D7D077F6F777C395E797116
S105023C088034
S9030000FC
